{
  "contractName": "krivago",
  "abi": [
    {
      "inputs": [
        {
          "internalType": "uint256",
          "name": "_registerFee",
          "type": "uint256"
        },
        {
          "internalType": "uint256",
          "name": "_maxRefund",
          "type": "uint256"
        },
        {
          "internalType": "uint256",
          "name": "_minRefund",
          "type": "uint256"
        },
        {
          "internalType": "uint256",
          "name": "_upperRefund",
          "type": "uint256"
        },
        {
          "internalType": "uint256",
          "name": "_lowerRefund",
          "type": "uint256"
        }
      ],
      "stateMutability": "nonpayable",
      "type": "constructor"
    },
    {
      "anonymous": false,
      "inputs": [
        {
          "indexed": false,
          "internalType": "uint256",
          "name": "bookingId",
          "type": "uint256"
        },
        {
          "components": [
            {
              "internalType": "address",
              "name": "visitor",
              "type": "address"
            },
            {
              "internalType": "uint256",
              "name": "hotelId",
              "type": "uint256"
            },
            {
              "internalType": "uint256",
              "name": "rooms",
              "type": "uint256"
            },
            {
              "internalType": "uint256",
              "name": "bookingTime",
              "type": "uint256"
            },
            {
              "internalType": "uint256",
              "name": "fromTime",
              "type": "uint256"
            },
            {
              "internalType": "uint256",
              "name": "toTime",
              "type": "uint256"
            },
            {
              "internalType": "uint256",
              "name": "bookingCost",
              "type": "uint256"
            },
            {
              "internalType": "enum krivago.State",
              "name": "status",
              "type": "uint8"
            }
          ],
          "indexed": false,
          "internalType": "struct krivago.Booking",
          "name": "newBooking",
          "type": "tuple"
        }
      ],
      "name": "Booked",
      "type": "event"
    },
    {
      "anonymous": false,
      "inputs": [
        {
          "indexed": false,
          "internalType": "uint256",
          "name": "bookingId",
          "type": "uint256"
        },
        {
          "indexed": false,
          "internalType": "uint256",
          "name": "refund",
          "type": "uint256"
        }
      ],
      "name": "Cancelled",
      "type": "event"
    },
    {
      "anonymous": false,
      "inputs": [
        {
          "indexed": false,
          "internalType": "uint256",
          "name": "hotelId",
          "type": "uint256"
        },
        {
          "components": [
            {
              "internalType": "address",
              "name": "hotelOwner",
              "type": "address"
            },
            {
              "internalType": "string",
              "name": "hotelName",
              "type": "string"
            },
            {
              "internalType": "string",
              "name": "hotelAddress",
              "type": "string"
            },
            {
              "internalType": "uint256",
              "name": "totalRooms",
              "type": "uint256"
            },
            {
              "internalType": "uint256",
              "name": "availableRooms",
              "type": "uint256"
            },
            {
              "internalType": "uint256",
              "name": "pricePerNight",
              "type": "uint256"
            },
            {
              "internalType": "bool",
              "name": "registered",
              "type": "bool"
            }
          ],
          "indexed": false,
          "internalType": "struct krivago.Hotel",
          "name": "newHotel",
          "type": "tuple"
        }
      ],
      "name": "HotelRegistered",
      "type": "event"
    },
    {
      "anonymous": false,
      "inputs": [
        {
          "indexed": true,
          "internalType": "address",
          "name": "previousOwner",
          "type": "address"
        },
        {
          "indexed": true,
          "internalType": "address",
          "name": "newOwner",
          "type": "address"
        }
      ],
      "name": "OwnershipTransferred",
      "type": "event"
    },
    {
      "inputs": [],
      "name": "owner",
      "outputs": [
        {
          "internalType": "address",
          "name": "",
          "type": "address"
        }
      ],
      "stateMutability": "view",
      "type": "function"
    },
    {
      "inputs": [],
      "name": "renounceOwnership",
      "outputs": [],
      "stateMutability": "nonpayable",
      "type": "function"
    },
    {
      "inputs": [
        {
          "internalType": "address",
          "name": "newOwner",
          "type": "address"
        }
      ],
      "name": "transferOwnership",
      "outputs": [],
      "stateMutability": "nonpayable",
      "type": "function"
    },
    {
      "stateMutability": "payable",
      "type": "receive"
    },
    {
      "inputs": [
        {
          "internalType": "uint256",
          "name": "_registerFee",
          "type": "uint256"
        }
      ],
      "name": "setRegisterFee",
      "outputs": [],
      "stateMutability": "nonpayable",
      "type": "function"
    },
    {
      "inputs": [
        {
          "internalType": "uint256",
          "name": "_maxRefund",
          "type": "uint256"
        },
        {
          "internalType": "uint256",
          "name": "_minRefund",
          "type": "uint256"
        }
      ],
      "name": "setRefundPercentages",
      "outputs": [],
      "stateMutability": "nonpayable",
      "type": "function"
    },
    {
      "inputs": [
        {
          "internalType": "uint256",
          "name": "_upperRefund",
          "type": "uint256"
        },
        {
          "internalType": "uint256",
          "name": "_lowerRefund",
          "type": "uint256"
        }
      ],
      "name": "setRefundDurations",
      "outputs": [],
      "stateMutability": "nonpayable",
      "type": "function"
    },
    {
      "inputs": [],
      "name": "getContractBalance",
      "outputs": [
        {
          "internalType": "uint256",
          "name": "",
          "type": "uint256"
        }
      ],
      "stateMutability": "view",
      "type": "function"
    },
    {
      "inputs": [
        {
          "internalType": "string",
          "name": "_name",
          "type": "string"
        },
        {
          "internalType": "string",
          "name": "_address",
          "type": "string"
        },
        {
          "internalType": "uint256",
          "name": "_totalRooms",
          "type": "uint256"
        },
        {
          "internalType": "uint256",
          "name": "_pricePerNight",
          "type": "uint256"
        }
      ],
      "name": "registerHotel",
      "outputs": [
        {
          "internalType": "bool",
          "name": "",
          "type": "bool"
        }
      ],
      "stateMutability": "payable",
      "type": "function"
    },
    {
      "inputs": [
        {
          "internalType": "uint256",
          "name": "_hotelId",
          "type": "uint256"
        },
        {
          "internalType": "uint256",
          "name": "_rooms",
          "type": "uint256"
        },
        {
          "internalType": "uint256",
          "name": "_nights",
          "type": "uint256"
        }
      ],
      "name": "getBookingCost",
      "outputs": [
        {
          "internalType": "uint256",
          "name": "",
          "type": "uint256"
        }
      ],
      "stateMutability": "view",
      "type": "function"
    },
    {
      "inputs": [
        {
          "internalType": "uint256",
          "name": "_hotelId",
          "type": "uint256"
        },
        {
          "internalType": "uint256",
          "name": "_rooms",
          "type": "uint256"
        },
        {
          "internalType": "uint256",
          "name": "_fromTime",
          "type": "uint256"
        },
        {
          "internalType": "uint256",
          "name": "_nights",
          "type": "uint256"
        }
      ],
      "name": "bookHotel",
      "outputs": [
        {
          "internalType": "bool",
          "name": "",
          "type": "bool"
        }
      ],
      "stateMutability": "payable",
      "type": "function"
    },
    {
      "inputs": [
        {
          "internalType": "uint256",
          "name": "_bookingId",
          "type": "uint256"
        }
      ],
      "name": "cancelBooking",
      "outputs": [
        {
          "internalType": "bool",
          "name": "",
          "type": "bool"
        }
      ],
      "stateMutability": "nonpayable",
      "type": "function"
    }
  ],
  "bytecode": "0x60806040523480156200001157600080fd5b5060405162001e2b38038062001e2b833981810160405281019062000037919062000168565b620000576200004b6200008560201b60201c565b6200008d60201b60201c565b8460038190555083600481905550826005819055508160068190555080600781905550505050505062000219565b600033905090565b60008060009054906101000a900473ffffffffffffffffffffffffffffffffffffffff169050816000806101000a81548173ffffffffffffffffffffffffffffffffffffffff021916908373ffffffffffffffffffffffffffffffffffffffff1602179055508173ffffffffffffffffffffffffffffffffffffffff168173ffffffffffffffffffffffffffffffffffffffff167f8be0079c531659141344cd1fd0a4f28419497f9722a3daafe3b4186f6b6457e060405160405180910390a35050565b6000815190506200016281620001ff565b92915050565b600080600080600060a08688031215620001875762000186620001fa565b5b6000620001978882890162000151565b9550506020620001aa8882890162000151565b9450506040620001bd8882890162000151565b9350506060620001d08882890162000151565b9250506080620001e38882890162000151565b9150509295509295909350565b6000819050919050565b600080fd5b6200020a81620001f0565b81146200021657600080fd5b50565b611c0280620002296000396000f3fe6080604052600436106100a05760003560e01c8063746165591161006457806374616559146101985780638da5cb5b146101c157806392be2ab8146101ec578063ab45c0c314610215578063b288d98414610245578063f2fde38b1461026e576100a7565b80630dca825e146100ac57806317901870146100e9578063194571cf146101265780636f9fb98a14610156578063715018a614610181576100a7565b366100a757005b600080fd5b3480156100b857600080fd5b506100d360048036038101906100ce91906112aa565b610297565b6040516100e09190611651565b60405180910390f35b3480156100f557600080fd5b50610110600480360381019061010b9190611317565b610573565b60405161011d91906116ac565b60405180910390f35b610140600480360381019061013b919061120b565b6105b0565b60405161014d9190611651565b60405180910390f35b34801561016257600080fd5b5061016b6107b4565b60405161017891906116ac565b60405180910390f35b34801561018d57600080fd5b506101966107bc565b005b3480156101a457600080fd5b506101bf60048036038101906101ba91906112d7565b610844565b005b3480156101cd57600080fd5b506101d66108d2565b6040516101e39190611636565b60405180910390f35b3480156101f857600080fd5b50610213600480360381019061020e91906112aa565b6108fb565b005b61022f600480360381019061022a919061136a565b610981565b60405161023c9190611651565b60405180910390f35b34801561025157600080fd5b5061026c600480360381019061026791906112d7565b610d48565b005b34801561027a57600080fd5b50610295600480360381019061029091906111de565b610dd6565b005b600081600060028111156102ae576102ad611a5d565b5b6009600083815260200190815260200160002060070160009054906101000a900460ff1660028111156102e4576102e3611a5d565b5b146102ee57600080fd5b3373ffffffffffffffffffffffffffffffffffffffff166009600085815260200190815260200160002060000160009054906101000a900473ffffffffffffffffffffffffffffffffffffffff1673ffffffffffffffffffffffffffffffffffffffff161461035c57600080fd5b60006009600085815260200190815260200160002060010154905060008061038386610ece565b9150915060003373ffffffffffffffffffffffffffffffffffffffff16836040516103ad90611621565b60006040518083038185875af1925050503d80600081146103ea576040519150601f19603f3d011682016040523d82523d6000602084013e6103ef565b606091505b50509050806103fd57600080fd5b60006008600086815260200190815260200160002060000160009054906101000a900473ffffffffffffffffffffffffffffffffffffffff1673ffffffffffffffffffffffffffffffffffffffff168360405161045990611621565b60006040518083038185875af1925050503d8060008114610496576040519150601f19603f3d011682016040523d82523d6000602084013e61049b565b606091505b50509050806104a957600080fd5b60096000898152602001908152602001600020600201546008600087815260200190815260200160002060040160008282546104e591906117d8565b925050819055506002600960008a815260200190815260200160002060070160006101000a81548160ff0219169083600281111561052657610525611a5d565b5b02179055507fa761582a460180d55522f9f5fdc076390a1f48a7a62a8afbd45c1bb797948edb888560405161055c929190611721565b60405180910390a160019650505050505050919050565b60008083836008600088815260200190815260200160002060050154610599919061185f565b6105a3919061185f565b9050809150509392505050565b600060018060008282546105c491906117d8565b9250508190555060006040518060e001604052803373ffffffffffffffffffffffffffffffffffffffff16815260200187815260200186815260200185815260200185815260200184815260200160011515815250905060003073ffffffffffffffffffffffffffffffffffffffff1660035460405161064390611621565b60006040518083038185875af1925050503d8060008114610680576040519150601f19603f3d011682016040523d82523d6000602084013e610685565b606091505b505090508061069357600080fd5b8160086000600154815260200190815260200160002060008201518160000160006101000a81548173ffffffffffffffffffffffffffffffffffffffff021916908373ffffffffffffffffffffffffffffffffffffffff160217905550602082015181600101908051906020019061070c9291906110a1565b5060408201518160020190805190602001906107299291906110a1565b50606082015181600301556080820151816004015560a0820151816005015560c08201518160060160006101000a81548160ff0219169083151502179055509050507f58e37370c521bd5a0a98d97327de9ddaab4611b06c9d78a3844994d6bb6a91d56001548360405161079e9291906116f1565b60405180910390a1600192505050949350505050565b600047905090565b6107c4610fd5565b73ffffffffffffffffffffffffffffffffffffffff166107e26108d2565b73ffffffffffffffffffffffffffffffffffffffff1614610838576040517f08c379a000000000000000000000000000000000000000000000000000000000815260040161082f9061168c565b60405180910390fd5b6108426000610fdd565b565b61084c610fd5565b73ffffffffffffffffffffffffffffffffffffffff1661086a6108d2565b73ffffffffffffffffffffffffffffffffffffffff16146108c0576040517f08c379a00000000000000000000000000000000000000000000000000000000081526004016108b79061168c565b60405180910390fd5b81600481905550806005819055505050565b60008060009054906101000a900473ffffffffffffffffffffffffffffffffffffffff16905090565b610903610fd5565b73ffffffffffffffffffffffffffffffffffffffff166109216108d2565b73ffffffffffffffffffffffffffffffffffffffff1614610977576040517f08c379a000000000000000000000000000000000000000000000000000000000815260040161096e9061168c565b60405180910390fd5b8060038190555050565b600084600115156008600083815260200190815260200160002060060160009054906101000a900460ff161515146109b857600080fd5b858580600860008481526020019081526020016000206004015410156109dd57600080fd5b6201518042876109ed91906118b9565b10156109f857600080fd5b6000610a05898988610573565b9050600160026000828254610a1a91906117d8565b9250508190555060006040518061010001604052803373ffffffffffffffffffffffffffffffffffffffff1681526020018b81526020018a81526020014281526020018981526020018862015180610a72919061185f565b8a610a7d91906117d8565b815260200183815260200160006002811115610a9c57610a9b611a5d565b5b81525090506000600860008c815260200190815260200160002060000160009054906101000a900473ffffffffffffffffffffffffffffffffffffffff1673ffffffffffffffffffffffffffffffffffffffff166004546064610aff91906118b9565b606485610b0c919061182e565b610b16919061185f565b604051610b2290611621565b60006040518083038185875af1925050503d8060008114610b5f576040519150601f19603f3d011682016040523d82523d6000602084013e610b64565b606091505b5050905080610b7257600080fd5b60003073ffffffffffffffffffffffffffffffffffffffff16600454606486610b9b919061182e565b610ba5919061185f565b604051610bb190611621565b60006040518083038185875af1925050503d8060008114610bee576040519150601f19603f3d011682016040523d82523d6000602084013e610bf3565b606091505b5050905080610c0157600080fd5b8a600860008e81526020019081526020016000206004016000828254610c2791906118b9565b925050819055508260096000600254815260200190815260200160002060008201518160000160006101000a81548173ffffffffffffffffffffffffffffffffffffffff021916908373ffffffffffffffffffffffffffffffffffffffff1602179055506020820151816001015560408201518160020155606082015181600301556080820151816004015560a0820151816005015560c0820151816006015560e08201518160070160006101000a81548160ff02191690836002811115610cf257610cf1611a5d565b5b02179055509050507f0d0a1fb6d97095ccd24fc8effd9e9ae5a3acf5f57beda65f51c1b888b978b88260025484604051610d2d9291906116c7565b60405180910390a16001975050505050505050949350505050565b610d50610fd5565b73ffffffffffffffffffffffffffffffffffffffff16610d6e6108d2565b73ffffffffffffffffffffffffffffffffffffffff1614610dc4576040517f08c379a0000000000000000000000000000000000000000000000000000000008152600401610dbb9061168c565b60405180910390fd5b81600681905550806007819055505050565b610dde610fd5565b73ffffffffffffffffffffffffffffffffffffffff16610dfc6108d2565b73ffffffffffffffffffffffffffffffffffffffff1614610e52576040517f08c379a0000000000000000000000000000000000000000000000000000000008152600401610e499061168c565b60405180910390fd5b600073ffffffffffffffffffffffffffffffffffffffff168173ffffffffffffffffffffffffffffffffffffffff161415610ec2576040517f08c379a0000000000000000000000000000000000000000000000000000000008152600401610eb99061166c565b60405180910390fd5b610ecb81610fdd565b50565b60008060008060006009600087815260200190815260200160002060060154905060065462015180610f00919061185f565b426009600089815260200190815260200160002060040154610f2291906118b9565b10610f4857600454606482610f37919061182e565b610f41919061185f565b9250610fc7565b60075462015180610f59919061185f565b426009600089815260200190815260200160002060040154610f7b91906118b9565b10610fc657600554606482610f90919061182e565b610f9a919061185f565b9250600554600454610fac91906118b9565b606482610fb9919061182e565b610fc3919061185f565b91505b5b828294509450505050915091565b600033905090565b60008060009054906101000a900473ffffffffffffffffffffffffffffffffffffffff169050816000806101000a81548173ffffffffffffffffffffffffffffffffffffffff021916908373ffffffffffffffffffffffffffffffffffffffff1602179055508173ffffffffffffffffffffffffffffffffffffffff168173ffffffffffffffffffffffffffffffffffffffff167f8be0079c531659141344cd1fd0a4f28419497f9722a3daafe3b4186f6b6457e060405160405180910390a35050565b8280546110ad9061199c565b90600052602060002090601f0160209004810192826110cf5760008555611116565b82601f106110e857805160ff1916838001178555611116565b82800160010185558215611116579182015b828111156111155782518255916020019190600101906110fa565b5b5090506111239190611127565b5090565b5b80821115611140576000816000905550600101611128565b5090565b60006111576111528461176f565b61174a565b90508281526020810184848401111561117357611172611aef565b5b61117e84828561195a565b509392505050565b60008135905061119581611b9e565b92915050565b600082601f8301126111b0576111af611aea565b5b81356111c0848260208601611144565b91505092915050565b6000813590506111d881611bb5565b92915050565b6000602082840312156111f4576111f3611af9565b5b600061120284828501611186565b91505092915050565b6000806000806080858703121561122557611224611af9565b5b600085013567ffffffffffffffff81111561124357611242611af4565b5b61124f8782880161119b565b945050602085013567ffffffffffffffff8111156112705761126f611af4565b5b61127c8782880161119b565b935050604061128d878288016111c9565b925050606061129e878288016111c9565b91505092959194509250565b6000602082840312156112c0576112bf611af9565b5b60006112ce848285016111c9565b91505092915050565b600080604083850312156112ee576112ed611af9565b5b60006112fc858286016111c9565b925050602061130d858286016111c9565b9150509250929050565b6000806000606084860312156113305761132f611af9565b5b600061133e868287016111c9565b935050602061134f868287016111c9565b9250506040611360868287016111c9565b9150509250925092565b6000806000806080858703121561138457611383611af9565b5b6000611392878288016111c9565b94505060206113a3878288016111c9565b93505060406113b4878288016111c9565b92505060606113c5878288016111c9565b91505092959194509250565b6113da816118ed565b82525050565b6113e9816118ed565b82525050565b6113f8816118ff565b82525050565b611407816118ff565b82525050565b61141681611948565b82525050565b6000611427826117a0565b61143181856117b6565b9350611441818560208601611969565b61144a81611afe565b840191505092915050565b60006114626026836117c7565b915061146d82611b0f565b604082019050919050565b60006114856020836117c7565b915061149082611b5e565b602082019050919050565b60006114a86000836117ab565b91506114b382611b87565b600082019050919050565b610100820160008201516114d560008501826113d1565b5060208201516114e86020850182611603565b5060408201516114fb6040850182611603565b50606082015161150e6060850182611603565b5060808201516115216080850182611603565b5060a082015161153460a0850182611603565b5060c082015161154760c0850182611603565b5060e082015161155a60e085018261140d565b50505050565b600060e08301600083015161157860008601826113d1565b5060208301518482036020860152611590828261141c565b915050604083015184820360408601526115aa828261141c565b91505060608301516115bf6060860182611603565b5060808301516115d26080860182611603565b5060a08301516115e560a0860182611603565b5060c08301516115f860c08601826113ef565b508091505092915050565b61160c8161193e565b82525050565b61161b8161193e565b82525050565b600061162c8261149b565b9150819050919050565b600060208201905061164b60008301846113e0565b92915050565b600060208201905061166660008301846113fe565b92915050565b6000602082019050818103600083015261168581611455565b9050919050565b600060208201905081810360008301526116a581611478565b9050919050565b60006020820190506116c16000830184611612565b92915050565b6000610120820190506116dd6000830185611612565b6116ea60208301846114be565b9392505050565b60006040820190506117066000830185611612565b81810360208301526117188184611560565b90509392505050565b60006040820190506117366000830185611612565b6117436020830184611612565b9392505050565b6000611754611765565b905061176082826119ce565b919050565b6000604051905090565b600067ffffffffffffffff82111561178a57611789611abb565b5b61179382611afe565b9050602081019050919050565b600081519050919050565b600081905092915050565b600082825260208201905092915050565b600082825260208201905092915050565b60006117e38261193e565b91506117ee8361193e565b9250827fffffffffffffffffffffffffffffffffffffffffffffffffffffffffffffffff03821115611823576118226119ff565b5b828201905092915050565b60006118398261193e565b91506118448361193e565b92508261185457611853611a2e565b5b828204905092915050565b600061186a8261193e565b91506118758361193e565b9250817fffffffffffffffffffffffffffffffffffffffffffffffffffffffffffffffff04831182151516156118ae576118ad6119ff565b5b828202905092915050565b60006118c48261193e565b91506118cf8361193e565b9250828210156118e2576118e16119ff565b5b828203905092915050565b60006118f88261191e565b9050919050565b60008115159050919050565b600081905061191982611b8a565b919050565b600073ffffffffffffffffffffffffffffffffffffffff82169050919050565b6000819050919050565b60006119538261190b565b9050919050565b82818337600083830152505050565b60005b8381101561198757808201518184015260208101905061196c565b83811115611996576000848401525b50505050565b600060028204905060018216806119b457607f821691505b602082108114156119c8576119c7611a8c565b5b50919050565b6119d782611afe565b810181811067ffffffffffffffff821117156119f6576119f5611abb565b5b80604052505050565b7f4e487b7100000000000000000000000000000000000000000000000000000000600052601160045260246000fd5b7f4e487b7100000000000000000000000000000000000000000000000000000000600052601260045260246000fd5b7f4e487b7100000000000000000000000000000000000000000000000000000000600052602160045260246000fd5b7f4e487b7100000000000000000000000000000000000000000000000000000000600052602260045260246000fd5b7f4e487b7100000000000000000000000000000000000000000000000000000000600052604160045260246000fd5b600080fd5b600080fd5b600080fd5b600080fd5b6000601f19601f8301169050919050565b7f4f776e61626c653a206e6577206f776e657220697320746865207a65726f206160008201527f6464726573730000000000000000000000000000000000000000000000000000602082015250565b7f4f776e61626c653a2063616c6c6572206973206e6f7420746865206f776e6572600082015250565b50565b60038110611b9b57611b9a611a5d565b5b50565b611ba7816118ed565b8114611bb257600080fd5b50565b611bbe8161193e565b8114611bc957600080fd5b5056fea2646970667358221220dc97ae0b6576abb83f3c7bbd7d7a4bd203c326f48faf352a0864405c9e56c27864736f6c63430008070033",
  "immutableReferences": {},
  "source": "// SPDX-License-Identifier: MIT\n\n// Comissionless Hotel Listing dApp.\n\npragma solidity ^0.8.7;\n\nimport \"@openzeppelin/contracts/access/Ownable.sol\";\n\ncontract krivago is Ownable {\n    uint256 hotelId;                        // Hotel ID.\n    uint256 bookingId;                      // Booking ID.\n    uint256 registerFee;                    // Hotel Registration Fee. Owner controlled.\n    uint256 maxRefund;                      // Max Refund in PERCENTAGE for Cancelled Booking. Owner controlled.\n    uint256 minRefund;                      // Min Refund in PERCENTAGE for Cancelled Booking. Owner controlled.    \n    uint256 upperRefund;                    // Time in DAYS to get maximum refund. Owner controlled.\n    uint256 lowerRefund;                    // Time in DAYS to get minimum refund. Owner controlled.\n    \n    enum State {Planned, Completed, Cancelled}\n    \n    struct Hotel {\n        address hotelOwner;\n        string hotelName;\n        string hotelAddress;\n        uint256 totalRooms;\n        uint256 availableRooms;\n        uint256 pricePerNight;\n        bool registered;\n    }\n    \n    struct Booking {\n        address visitor;\n        uint256 hotelId;\n        uint256 rooms;\n        uint256 bookingTime;\n        uint256 fromTime;\n        uint256 toTime;\n        uint256 bookingCost;\n        State status;\n    }\n    \n    mapping(uint256 => Hotel) hotelIdToHotel;\n    mapping(uint256 => Booking) bookingIdToBooking;\n    \n    event HotelRegistered(uint256 hotelId, Hotel newHotel);\n    event Booked(uint256 bookingId, Booking newBooking);\n    event Cancelled(uint256 bookingId, uint256 refund);\n    \n    receive() external payable {}\n    \n    constructor(uint256 _registerFee, uint256 _maxRefund, uint256 _minRefund, uint256 _upperRefund, uint256 _lowerRefund) {\n        registerFee = _registerFee;\n        maxRefund = _maxRefund;\n        minRefund = _minRefund;\n        upperRefund = _upperRefund;\n        lowerRefund = _lowerRefund;\n    }\n    \n    modifier isRegistered(uint256 _hotelId) {\n        require(hotelIdToHotel[_hotelId].registered == true);\n        _;\n    }\n    \n    modifier isAvailable(uint256 _hotelId, uint256 _rooms) {\n        require(hotelIdToHotel[_hotelId].availableRooms >= _rooms);\n        _;\n    }\n    \n    modifier isPlanned(uint256 _bookingId) {\n        require(bookingIdToBooking[_bookingId].status == State.Planned);\n        _;\n    }\n    \n    function setRegisterFee(uint256 _registerFee) external onlyOwner {\n        registerFee = _registerFee;\n    }\n    \n    function setRefundPercentages(uint256 _maxRefund, uint256 _minRefund) external onlyOwner {\n        maxRefund = _maxRefund;\n        minRefund = _minRefund;\n    }\n    \n    function setRefundDurations(uint256 _upperRefund, uint256 _lowerRefund) external onlyOwner {\n        upperRefund = _upperRefund;\n        lowerRefund = _lowerRefund;\n    }\n    \n    function getContractBalance() public view returns (uint256) {\n        return address(this).balance;\n    }\n    \n    function registerHotel(\n        string memory _name,\n        string memory _address,\n        uint256 _totalRooms,\n        uint256 _pricePerNight)\n        external payable returns (bool) {\n            \n            hotelId += 1;\n            Hotel memory newHotel = Hotel({\n                hotelOwner: msg.sender,\n                hotelName: _name,\n                hotelAddress: _address,\n                totalRooms: _totalRooms,\n                availableRooms: _totalRooms,\n                pricePerNight: _pricePerNight,\n                registered: true\n            });\n            \n            (bool success, ) = address(this).call{value: registerFee}(\"\");\n            require(success);\n            hotelIdToHotel[hotelId] = newHotel;\n            \n            emit HotelRegistered(hotelId, newHotel);\n            return true;\n        }\n    \n    function getBookingCost(uint256 _hotelId, uint256 _rooms, uint256 _nights) public view returns (uint256) {\n        uint256 bookingCost = hotelIdToHotel[_hotelId].pricePerNight * _nights * _rooms;\n        return bookingCost;\n    }\n        \n    function bookHotel(\n        uint256 _hotelId, \n        uint256 _rooms, \n        uint256 _fromTime, \n        uint256 _nights) \n        external payable isRegistered(_hotelId) isAvailable(_hotelId, _rooms) returns (bool) {\n            \n            require(_fromTime - block.timestamp >= 86400);\n            uint256 cost = getBookingCost(_hotelId, _rooms, _nights);\n            bookingId += 1;\n            Booking memory newBooking = Booking({\n                visitor: msg.sender,\n                hotelId: _hotelId,\n                rooms: _rooms,\n                bookingTime: block.timestamp,\n                fromTime: _fromTime,\n                toTime: _fromTime + 86400 * _nights,\n                bookingCost: cost,\n                status: State.Planned\n            });\n            \n            // send non-refundable amount immediately to hotel owner.\n            (bool success1, ) = payable(hotelIdToHotel[_hotelId].hotelOwner).call{value: (cost/100) * (100 - maxRefund)}(\"\");\n            require(success1);\n            \n            // block maximum refund amount with smart contract.\n            (bool success2, ) = address(this).call{value: (cost/100) * maxRefund}(\"\");\n            require(success2);\n            \n            hotelIdToHotel[_hotelId].availableRooms -= _rooms;\n            bookingIdToBooking[bookingId] = newBooking;\n            \n            emit Booked(bookingId, newBooking);\n            return true;\n    }\n\n    function getRefundAmount(uint256 _bookingId) internal view returns (uint256, uint256) {\n        uint256 refundVisitor = 0;\n        uint256 toHotelOwner = 0;\n        uint256 bCost = bookingIdToBooking[_bookingId].bookingCost;\n        \n        if (bookingIdToBooking[_bookingId].fromTime - block.timestamp >= 86400 * upperRefund) {\n            refundVisitor = (bCost/100) * maxRefund;\n        }\n        else if (bookingIdToBooking[_bookingId].fromTime - block.timestamp >= 86400 * lowerRefund) {\n            refundVisitor = (bCost/100) * minRefund;\n            toHotelOwner = (bCost/100) * (maxRefund - minRefund);\n        }\n        \n        return (refundVisitor, toHotelOwner);\n    }\n    \n    function cancelBooking(uint256 _bookingId) external isPlanned(_bookingId) returns (bool) {\n        require(bookingIdToBooking[_bookingId].visitor == msg.sender);\n        \n        uint256 hId = bookingIdToBooking[_bookingId].hotelId;\n        (uint256 refundVisitor, uint256 toHotelOwner) = getRefundAmount(_bookingId);\n        (bool success1, ) = payable(msg.sender).call{value: refundVisitor}(\"\");\n        require(success1);\n        (bool success2, ) = payable(hotelIdToHotel[hId].hotelOwner).call{value: toHotelOwner}(\"\");\n        require(success2);\n        \n        hotelIdToHotel[hId].availableRooms += bookingIdToBooking[_bookingId].rooms;\n        bookingIdToBooking[_bookingId].status = State.Cancelled;\n        emit Cancelled(_bookingId, refundVisitor);\n        return true;\n    }\n    \n}",
  "sourcePath": "/mnt/c/Users/kusha/BlockchainBootcamp/blockchain-bootcamp-final-project/contracts/finalProjectContract.sol",
  "compiler": {
    "name": "solc",
    "version": "0.8.7+commit.e28d00a7.Emscripten.clang"
  },
  "schemaVersion": "3.3.4",
  "updatedAt": "2021-11-17T06:37:35.804Z",
  "devdoc": {
    "kind": "dev",
    "methods": {
      "owner()": {
        "details": "Returns the address of the current owner."
      },
      "renounceOwnership()": {
        "details": "Leaves the contract without owner. It will not be possible to call `onlyOwner` functions anymore. Can only be called by the current owner. NOTE: Renouncing ownership will leave the contract without an owner, thereby removing any functionality that is only available to the owner."
      },
      "transferOwnership(address)": {
        "details": "Transfers ownership of the contract to a new account (`newOwner`). Can only be called by the current owner."
      }
    },
    "version": 1
  },
  "userdoc": {
    "kind": "user",
    "methods": {},
    "version": 1
  }
}