{
  "contractName": "krivago",
  "abi": [
    {
      "inputs": [
        {
          "internalType": "uint256",
          "name": "_registerFee",
          "type": "uint256"
        },
        {
          "internalType": "uint256",
          "name": "_maxRefund",
          "type": "uint256"
        },
        {
          "internalType": "uint256",
          "name": "_minRefund",
          "type": "uint256"
        },
        {
          "internalType": "uint256",
          "name": "_upperRefund",
          "type": "uint256"
        },
        {
          "internalType": "uint256",
          "name": "_lowerRefund",
          "type": "uint256"
        }
      ],
      "stateMutability": "nonpayable",
      "type": "constructor"
    },
    {
      "anonymous": false,
      "inputs": [
        {
          "indexed": false,
          "internalType": "uint256",
          "name": "bookingId",
          "type": "uint256"
        },
        {
          "components": [
            {
              "internalType": "address",
              "name": "visitor",
              "type": "address"
            },
            {
              "internalType": "uint256",
              "name": "hotelId",
              "type": "uint256"
            },
            {
              "internalType": "uint256",
              "name": "rooms",
              "type": "uint256"
            },
            {
              "internalType": "uint256",
              "name": "bookingTime",
              "type": "uint256"
            },
            {
              "internalType": "uint256",
              "name": "fromTime",
              "type": "uint256"
            },
            {
              "internalType": "uint256",
              "name": "toTime",
              "type": "uint256"
            },
            {
              "internalType": "uint256",
              "name": "bookingCost",
              "type": "uint256"
            },
            {
              "internalType": "enum krivago.State",
              "name": "status",
              "type": "uint8"
            }
          ],
          "indexed": false,
          "internalType": "struct krivago.Booking",
          "name": "newBooking",
          "type": "tuple"
        }
      ],
      "name": "Booked",
      "type": "event"
    },
    {
      "anonymous": false,
      "inputs": [
        {
          "indexed": false,
          "internalType": "uint256",
          "name": "bookingId",
          "type": "uint256"
        },
        {
          "indexed": false,
          "internalType": "uint256",
          "name": "refundVisitor",
          "type": "uint256"
        },
        {
          "indexed": false,
          "internalType": "uint256",
          "name": "toHotelOwner",
          "type": "uint256"
        },
        {
          "indexed": false,
          "internalType": "uint256",
          "name": "timestamp",
          "type": "uint256"
        }
      ],
      "name": "Cancelled",
      "type": "event"
    },
    {
      "anonymous": false,
      "inputs": [
        {
          "indexed": false,
          "internalType": "uint256",
          "name": "bookingId",
          "type": "uint256"
        },
        {
          "indexed": false,
          "internalType": "uint256",
          "name": "timestamp",
          "type": "uint256"
        }
      ],
      "name": "Completed",
      "type": "event"
    },
    {
      "anonymous": false,
      "inputs": [
        {
          "indexed": false,
          "internalType": "uint256",
          "name": "hotelId",
          "type": "uint256"
        },
        {
          "components": [
            {
              "internalType": "address",
              "name": "hotelOwner",
              "type": "address"
            },
            {
              "internalType": "string",
              "name": "hotelName",
              "type": "string"
            },
            {
              "internalType": "string",
              "name": "hotelAddress",
              "type": "string"
            },
            {
              "internalType": "uint256",
              "name": "totalRooms",
              "type": "uint256"
            },
            {
              "internalType": "uint256",
              "name": "availableRooms",
              "type": "uint256"
            },
            {
              "internalType": "uint256",
              "name": "pricePerNight",
              "type": "uint256"
            },
            {
              "internalType": "bool",
              "name": "registered",
              "type": "bool"
            },
            {
              "internalType": "string",
              "name": "imgUrl",
              "type": "string"
            }
          ],
          "indexed": false,
          "internalType": "struct krivago.Hotel",
          "name": "newHotel",
          "type": "tuple"
        }
      ],
      "name": "HotelRegistered",
      "type": "event"
    },
    {
      "anonymous": false,
      "inputs": [
        {
          "indexed": true,
          "internalType": "address",
          "name": "previousOwner",
          "type": "address"
        },
        {
          "indexed": true,
          "internalType": "address",
          "name": "newOwner",
          "type": "address"
        }
      ],
      "name": "OwnershipTransferred",
      "type": "event"
    },
    {
      "inputs": [],
      "name": "owner",
      "outputs": [
        {
          "internalType": "address",
          "name": "",
          "type": "address"
        }
      ],
      "stateMutability": "view",
      "type": "function"
    },
    {
      "inputs": [],
      "name": "renounceOwnership",
      "outputs": [],
      "stateMutability": "nonpayable",
      "type": "function"
    },
    {
      "inputs": [
        {
          "internalType": "address",
          "name": "newOwner",
          "type": "address"
        }
      ],
      "name": "transferOwnership",
      "outputs": [],
      "stateMutability": "nonpayable",
      "type": "function"
    },
    {
      "stateMutability": "payable",
      "type": "receive"
    },
    {
      "inputs": [
        {
          "internalType": "uint256",
          "name": "_registerFee",
          "type": "uint256"
        }
      ],
      "name": "setRegisterFee",
      "outputs": [],
      "stateMutability": "nonpayable",
      "type": "function"
    },
    {
      "inputs": [
        {
          "internalType": "uint256",
          "name": "_maxRefund",
          "type": "uint256"
        },
        {
          "internalType": "uint256",
          "name": "_minRefund",
          "type": "uint256"
        }
      ],
      "name": "setRefundPercentages",
      "outputs": [],
      "stateMutability": "nonpayable",
      "type": "function"
    },
    {
      "inputs": [
        {
          "internalType": "uint256",
          "name": "_upperRefund",
          "type": "uint256"
        },
        {
          "internalType": "uint256",
          "name": "_lowerRefund",
          "type": "uint256"
        }
      ],
      "name": "setRefundDurations",
      "outputs": [],
      "stateMutability": "nonpayable",
      "type": "function"
    },
    {
      "inputs": [],
      "name": "getContractBalance",
      "outputs": [
        {
          "internalType": "uint256",
          "name": "",
          "type": "uint256"
        }
      ],
      "stateMutability": "view",
      "type": "function"
    },
    {
      "inputs": [
        {
          "internalType": "uint256",
          "name": "_amount",
          "type": "uint256"
        }
      ],
      "name": "withdrawFunds",
      "outputs": [
        {
          "internalType": "bool",
          "name": "",
          "type": "bool"
        }
      ],
      "stateMutability": "nonpayable",
      "type": "function"
    },
    {
      "inputs": [
        {
          "internalType": "string",
          "name": "_name",
          "type": "string"
        },
        {
          "internalType": "string",
          "name": "_address",
          "type": "string"
        },
        {
          "internalType": "uint256",
          "name": "_totalRooms",
          "type": "uint256"
        },
        {
          "internalType": "uint256",
          "name": "_pricePerNight",
          "type": "uint256"
        },
        {
          "internalType": "string",
          "name": "_imgUrl",
          "type": "string"
        }
      ],
      "name": "registerHotel",
      "outputs": [
        {
          "internalType": "bool",
          "name": "",
          "type": "bool"
        }
      ],
      "stateMutability": "payable",
      "type": "function"
    },
    {
      "inputs": [
        {
          "internalType": "uint256",
          "name": "_hotelId",
          "type": "uint256"
        },
        {
          "internalType": "uint256",
          "name": "_rooms",
          "type": "uint256"
        },
        {
          "internalType": "uint256",
          "name": "_nights",
          "type": "uint256"
        }
      ],
      "name": "getBookingCost",
      "outputs": [
        {
          "internalType": "uint256",
          "name": "",
          "type": "uint256"
        }
      ],
      "stateMutability": "view",
      "type": "function"
    },
    {
      "inputs": [
        {
          "internalType": "uint256",
          "name": "_hotelId",
          "type": "uint256"
        },
        {
          "internalType": "uint256",
          "name": "_rooms",
          "type": "uint256"
        },
        {
          "internalType": "uint256",
          "name": "_fromTime",
          "type": "uint256"
        },
        {
          "internalType": "uint256",
          "name": "_nights",
          "type": "uint256"
        }
      ],
      "name": "bookHotel",
      "outputs": [
        {
          "internalType": "bool",
          "name": "",
          "type": "bool"
        }
      ],
      "stateMutability": "payable",
      "type": "function"
    },
    {
      "inputs": [
        {
          "internalType": "uint256",
          "name": "_bookingId",
          "type": "uint256"
        }
      ],
      "name": "finish",
      "outputs": [
        {
          "internalType": "bool",
          "name": "",
          "type": "bool"
        }
      ],
      "stateMutability": "nonpayable",
      "type": "function"
    },
    {
      "inputs": [
        {
          "internalType": "uint256",
          "name": "_bookingId",
          "type": "uint256"
        }
      ],
      "name": "cancelBooking",
      "outputs": [
        {
          "internalType": "bool",
          "name": "",
          "type": "bool"
        }
      ],
      "stateMutability": "nonpayable",
      "type": "function"
    }
  ],
  "bytecode": "0x60806040523480156200001157600080fd5b506040516200235138038062002351833981810160405281019062000037919062000168565b620000576200004b6200008560201b60201c565b6200008d60201b60201c565b8460038190555083600481905550826005819055508160068190555080600781905550505050505062000219565b600033905090565b60008060009054906101000a900473ffffffffffffffffffffffffffffffffffffffff169050816000806101000a81548173ffffffffffffffffffffffffffffffffffffffff021916908373ffffffffffffffffffffffffffffffffffffffff1602179055508173ffffffffffffffffffffffffffffffffffffffff168173ffffffffffffffffffffffffffffffffffffffff167f8be0079c531659141344cd1fd0a4f28419497f9722a3daafe3b4186f6b6457e060405160405180910390a35050565b6000815190506200016281620001ff565b92915050565b600080600080600060a08688031215620001875762000186620001fa565b5b6000620001978882890162000151565b9550506020620001aa8882890162000151565b9450506040620001bd8882890162000151565b9350506060620001d08882890162000151565b9250506080620001e38882890162000151565b9150509295509295909350565b6000819050919050565b600080fd5b6200020a81620001f0565b81146200021657600080fd5b50565b61212880620002296000396000f3fe6080604052600436106100c65760003560e01c80638da5cb5b1161007f578063b288d98411610059578063b288d98414610278578063bd1aa20e146102a1578063d353a1cb146102d1578063f2fde38b1461030e576100cd565b80638da5cb5b146101f457806392be2ab81461021f578063ab45c0c314610248576100cd565b80630dca825e146100d2578063155dd5ee1461010f578063179018701461014c5780636f9fb98a14610189578063715018a6146101b457806374616559146101cb576100cd565b366100cd57005b600080fd5b3480156100de57600080fd5b506100f960048036038101906100f49190611770565b610337565b6040516101069190611b32565b60405180910390f35b34801561011b57600080fd5b5061013660048036038101906101319190611770565b610623565b6040516101439190611b32565b60405180910390f35b34801561015857600080fd5b50610173600480360381019061016e91906117dd565b610721565b6040516101809190611b8d565b60405180910390f35b34801561019557600080fd5b5061019e61075e565b6040516101ab9190611b8d565b60405180910390f35b3480156101c057600080fd5b506101c96107e2565b005b3480156101d757600080fd5b506101f260048036038101906101ed919061179d565b61086a565b005b34801561020057600080fd5b506102096108f8565b6040516102169190611b17565b60405180910390f35b34801561022b57600080fd5b5061024660048036038101906102419190611770565b610921565b005b610262600480360381019061025d9190611830565b6109a7565b60405161026f9190611b32565b60405180910390f35b34801561028457600080fd5b5061029f600480360381019061029a919061179d565b610d6e565b005b6102bb60048036038101906102b691906116a1565b610dfc565b6040516102c89190611b32565b60405180910390f35b3480156102dd57600080fd5b506102f860048036038101906102f39190611770565b611025565b6040516103059190611b32565b60405180910390f35b34801561031a57600080fd5b5061033560048036038101906103309190611674565b61126c565b005b6000816000600281111561034e5761034d611f83565b5b6009600083815260200190815260200160002060070160009054906101000a900460ff16600281111561038457610383611f83565b5b1461038e57600080fd5b823373ffffffffffffffffffffffffffffffffffffffff166009600083815260200190815260200160002060000160009054906101000a900473ffffffffffffffffffffffffffffffffffffffff1673ffffffffffffffffffffffffffffffffffffffff16146103fd57600080fd5b60006009600086815260200190815260200160002060010154905060008061042487611364565b9150915060003373ffffffffffffffffffffffffffffffffffffffff168360405161044e90611b02565b60006040518083038185875af1925050503d806000811461048b576040519150601f19603f3d011682016040523d82523d6000602084013e610490565b606091505b505090508061049e57600080fd5b60008211156105555760006008600086815260200190815260200160002060000160009054906101000a900473ffffffffffffffffffffffffffffffffffffffff1673ffffffffffffffffffffffffffffffffffffffff168360405161050390611b02565b60006040518083038185875af1925050503d8060008114610540576040519150601f19603f3d011682016040523d82523d6000602084013e610545565b606091505b505090508061055357600080fd5b505b60096000898152602001908152602001600020600201546008600086815260200190815260200160002060040160008282546105919190611cfe565b925050819055506002600960008a815260200190815260200160002060070160006101000a81548160ff021916908360028111156105d2576105d1611f83565b5b02179055507f5d04485ffe23cf34ece5bdf0296682114141de925a2fc7b0e41ed3ddaecb88988884844260405161060c9493929190611c2b565b60405180910390a160019650505050505050919050565b600061062d61146b565b73ffffffffffffffffffffffffffffffffffffffff1661064b6108f8565b73ffffffffffffffffffffffffffffffffffffffff16146106a1576040517f08c379a000000000000000000000000000000000000000000000000000000000815260040161069890611b6d565b60405180910390fd5b60003373ffffffffffffffffffffffffffffffffffffffff16836040516106c790611b02565b60006040518083038185875af1925050503d8060008114610704576040519150601f19603f3d011682016040523d82523d6000602084013e610709565b606091505b505090508061071757600080fd5b6001915050919050565b600080838360086000888152602001908152602001600020600501546107479190611d85565b6107519190611d85565b9050809150509392505050565b600061076861146b565b73ffffffffffffffffffffffffffffffffffffffff166107866108f8565b73ffffffffffffffffffffffffffffffffffffffff16146107dc576040517f08c379a00000000000000000000000000000000000000000000000000000000081526004016107d390611b6d565b60405180910390fd5b47905090565b6107ea61146b565b73ffffffffffffffffffffffffffffffffffffffff166108086108f8565b73ffffffffffffffffffffffffffffffffffffffff161461085e576040517f08c379a000000000000000000000000000000000000000000000000000000000815260040161085590611b6d565b60405180910390fd5b6108686000611473565b565b61087261146b565b73ffffffffffffffffffffffffffffffffffffffff166108906108f8565b73ffffffffffffffffffffffffffffffffffffffff16146108e6576040517f08c379a00000000000000000000000000000000000000000000000000000000081526004016108dd90611b6d565b60405180910390fd5b81600481905550806005819055505050565b60008060009054906101000a900473ffffffffffffffffffffffffffffffffffffffff16905090565b61092961146b565b73ffffffffffffffffffffffffffffffffffffffff166109476108f8565b73ffffffffffffffffffffffffffffffffffffffff161461099d576040517f08c379a000000000000000000000000000000000000000000000000000000000815260040161099490611b6d565b60405180910390fd5b8060038190555050565b600084600115156008600083815260200190815260200160002060060160009054906101000a900460ff161515146109de57600080fd5b85858060086000848152602001908152602001600020600401541015610a0357600080fd5b620151804287610a139190611ddf565b1015610a1e57600080fd5b6000610a2b898988610721565b9050600160026000828254610a409190611cfe565b9250508190555060006040518061010001604052803373ffffffffffffffffffffffffffffffffffffffff1681526020018b81526020018a81526020014281526020018981526020018862015180610a989190611d85565b8a610aa39190611cfe565b815260200183815260200160006002811115610ac257610ac1611f83565b5b81525090506000600860008c815260200190815260200160002060000160009054906101000a900473ffffffffffffffffffffffffffffffffffffffff1673ffffffffffffffffffffffffffffffffffffffff166004546064610b259190611ddf565b606485610b329190611d54565b610b3c9190611d85565b604051610b4890611b02565b60006040518083038185875af1925050503d8060008114610b85576040519150601f19603f3d011682016040523d82523d6000602084013e610b8a565b606091505b5050905080610b9857600080fd5b60003073ffffffffffffffffffffffffffffffffffffffff16600454606486610bc19190611d54565b610bcb9190611d85565b604051610bd790611b02565b60006040518083038185875af1925050503d8060008114610c14576040519150601f19603f3d011682016040523d82523d6000602084013e610c19565b606091505b5050905080610c2757600080fd5b8a600860008e81526020019081526020016000206004016000828254610c4d9190611ddf565b925050819055508260096000600254815260200190815260200160002060008201518160000160006101000a81548173ffffffffffffffffffffffffffffffffffffffff021916908373ffffffffffffffffffffffffffffffffffffffff1602179055506020820151816001015560408201518160020155606082015181600301556080820151816004015560a0820151816005015560c0820151816006015560e08201518160070160006101000a81548160ff02191690836002811115610d1857610d17611f83565b5b02179055509050507f0d0a1fb6d97095ccd24fc8effd9e9ae5a3acf5f57beda65f51c1b888b978b88260025484604051610d53929190611ba8565b60405180910390a16001975050505050505050949350505050565b610d7661146b565b73ffffffffffffffffffffffffffffffffffffffff16610d946108f8565b73ffffffffffffffffffffffffffffffffffffffff1614610dea576040517f08c379a0000000000000000000000000000000000000000000000000000000008152600401610de190611b6d565b60405180910390fd5b81600681905550806007819055505050565b60006001806000828254610e109190611cfe565b9250508190555060006040518061010001604052803373ffffffffffffffffffffffffffffffffffffffff16815260200188815260200187815260200186815260200186815260200185815260200160011515815260200184815250905060003073ffffffffffffffffffffffffffffffffffffffff16600354604051610e9690611b02565b60006040518083038185875af1925050503d8060008114610ed3576040519150601f19603f3d011682016040523d82523d6000602084013e610ed8565b606091505b5050905080610ee657600080fd5b8160086000600154815260200190815260200160002060008201518160000160006101000a81548173ffffffffffffffffffffffffffffffffffffffff021916908373ffffffffffffffffffffffffffffffffffffffff1602179055506020820151816001019080519060200190610f5f929190611537565b506040820151816002019080519060200190610f7c929190611537565b50606082015181600301556080820151816004015560a0820151816005015560c08201518160060160006101000a81548160ff02191690831515021790555060e0820151816007019080519060200190610fd7929190611537565b509050507fb573a6df76c7a7724414f6d4a9b7ae1de0b5468aaaf267d8fc520fdb77d1cb786001548360405161100e929190611bd2565b60405180910390a160019250505095945050505050565b6000816000600281111561103c5761103b611f83565b5b6009600083815260200190815260200160002060070160009054906101000a900460ff16600281111561107257611071611f83565b5b1461107c57600080fd5b823373ffffffffffffffffffffffffffffffffffffffff166009600083815260200190815260200160002060000160009054906101000a900473ffffffffffffffffffffffffffffffffffffffff1673ffffffffffffffffffffffffffffffffffffffff16146110eb57600080fd5b60006009600086815260200190815260200160002060010154905060006009600087815260200190815260200160002060060154905060006008600084815260200190815260200160002060000160009054906101000a900473ffffffffffffffffffffffffffffffffffffffff1673ffffffffffffffffffffffffffffffffffffffff166004546064846111809190611d54565b61118a9190611d85565b60405161119690611b02565b60006040518083038185875af1925050503d80600081146111d3576040519150601f19603f3d011682016040523d82523d6000602084013e6111d8565b606091505b50509050806111e657600080fd5b60016009600089815260200190815260200160002060070160006101000a81548160ff021916908360028111156112205761121f611f83565b5b02179055507f12a1c1987aa73679916aba446c3dc908aba127ae71d422c51cece3350d680f088742604051611256929190611c02565b60405180910390a1600195505050505050919050565b61127461146b565b73ffffffffffffffffffffffffffffffffffffffff166112926108f8565b73ffffffffffffffffffffffffffffffffffffffff16146112e8576040517f08c379a00000000000000000000000000000000000000000000000000000000081526004016112df90611b6d565b60405180910390fd5b600073ffffffffffffffffffffffffffffffffffffffff168173ffffffffffffffffffffffffffffffffffffffff161415611358576040517f08c379a000000000000000000000000000000000000000000000000000000000815260040161134f90611b4d565b60405180910390fd5b61136181611473565b50565b600080600080600060096000878152602001908152602001600020600601549050600654620151806113969190611d85565b4260096000898152602001908152602001600020600401546113b89190611ddf565b106113de576004546064826113cd9190611d54565b6113d79190611d85565b925061145d565b600754620151806113ef9190611d85565b4260096000898152602001908152602001600020600401546114119190611ddf565b1061145c576005546064826114269190611d54565b6114309190611d85565b92506005546004546114429190611ddf565b60648261144f9190611d54565b6114599190611d85565b91505b5b828294509450505050915091565b600033905090565b60008060009054906101000a900473ffffffffffffffffffffffffffffffffffffffff169050816000806101000a81548173ffffffffffffffffffffffffffffffffffffffff021916908373ffffffffffffffffffffffffffffffffffffffff1602179055508173ffffffffffffffffffffffffffffffffffffffff168173ffffffffffffffffffffffffffffffffffffffff167f8be0079c531659141344cd1fd0a4f28419497f9722a3daafe3b4186f6b6457e060405160405180910390a35050565b82805461154390611ec2565b90600052602060002090601f01602090048101928261156557600085556115ac565b82601f1061157e57805160ff19168380011785556115ac565b828001600101855582156115ac579182015b828111156115ab578251825591602001919060010190611590565b5b5090506115b991906115bd565b5090565b5b808211156115d65760008160009055506001016115be565b5090565b60006115ed6115e884611c95565b611c70565b90508281526020810184848401111561160957611608612015565b5b611614848285611e80565b509392505050565b60008135905061162b816120c4565b92915050565b600082601f83011261164657611645612010565b5b81356116568482602086016115da565b91505092915050565b60008135905061166e816120db565b92915050565b60006020828403121561168a5761168961201f565b5b60006116988482850161161c565b91505092915050565b600080600080600060a086880312156116bd576116bc61201f565b5b600086013567ffffffffffffffff8111156116db576116da61201a565b5b6116e788828901611631565b955050602086013567ffffffffffffffff8111156117085761170761201a565b5b61171488828901611631565b94505060406117258882890161165f565b93505060606117368882890161165f565b925050608086013567ffffffffffffffff8111156117575761175661201a565b5b61176388828901611631565b9150509295509295909350565b6000602082840312156117865761178561201f565b5b60006117948482850161165f565b91505092915050565b600080604083850312156117b4576117b361201f565b5b60006117c28582860161165f565b92505060206117d38582860161165f565b9150509250929050565b6000806000606084860312156117f6576117f561201f565b5b60006118048682870161165f565b93505060206118158682870161165f565b92505060406118268682870161165f565b9150509250925092565b6000806000806080858703121561184a5761184961201f565b5b60006118588782880161165f565b94505060206118698782880161165f565b935050604061187a8782880161165f565b925050606061188b8782880161165f565b91505092959194509250565b6118a081611e13565b82525050565b6118af81611e13565b82525050565b6118be81611e25565b82525050565b6118cd81611e25565b82525050565b6118dc81611e6e565b82525050565b60006118ed82611cc6565b6118f78185611cdc565b9350611907818560208601611e8f565b61191081612024565b840191505092915050565b6000611928602683611ced565b915061193382612035565b604082019050919050565b600061194b602083611ced565b915061195682612084565b602082019050919050565b600061196e600083611cd1565b9150611979826120ad565b600082019050919050565b6101008201600082015161199b6000850182611897565b5060208201516119ae6020850182611ae4565b5060408201516119c16040850182611ae4565b5060608201516119d46060850182611ae4565b5060808201516119e76080850182611ae4565b5060a08201516119fa60a0850182611ae4565b5060c0820151611a0d60c0850182611ae4565b5060e0820151611a2060e08501826118d3565b50505050565b600061010083016000830151611a3f6000860182611897565b5060208301518482036020860152611a5782826118e2565b91505060408301518482036040860152611a7182826118e2565b9150506060830151611a866060860182611ae4565b506080830151611a996080860182611ae4565b5060a0830151611aac60a0860182611ae4565b5060c0830151611abf60c08601826118b5565b5060e083015184820360e0860152611ad782826118e2565b9150508091505092915050565b611aed81611e64565b82525050565b611afc81611e64565b82525050565b6000611b0d82611961565b9150819050919050565b6000602082019050611b2c60008301846118a6565b92915050565b6000602082019050611b4760008301846118c4565b92915050565b60006020820190508181036000830152611b668161191b565b9050919050565b60006020820190508181036000830152611b868161193e565b9050919050565b6000602082019050611ba26000830184611af3565b92915050565b600061012082019050611bbe6000830185611af3565b611bcb6020830184611984565b9392505050565b6000604082019050611be76000830185611af3565b8181036020830152611bf98184611a26565b90509392505050565b6000604082019050611c176000830185611af3565b611c246020830184611af3565b9392505050565b6000608082019050611c406000830187611af3565b611c4d6020830186611af3565b611c5a6040830185611af3565b611c676060830184611af3565b95945050505050565b6000611c7a611c8b565b9050611c868282611ef4565b919050565b6000604051905090565b600067ffffffffffffffff821115611cb057611caf611fe1565b5b611cb982612024565b9050602081019050919050565b600081519050919050565b600081905092915050565b600082825260208201905092915050565b600082825260208201905092915050565b6000611d0982611e64565b9150611d1483611e64565b9250827fffffffffffffffffffffffffffffffffffffffffffffffffffffffffffffffff03821115611d4957611d48611f25565b5b828201905092915050565b6000611d5f82611e64565b9150611d6a83611e64565b925082611d7a57611d79611f54565b5b828204905092915050565b6000611d9082611e64565b9150611d9b83611e64565b9250817fffffffffffffffffffffffffffffffffffffffffffffffffffffffffffffffff0483118215151615611dd457611dd3611f25565b5b828202905092915050565b6000611dea82611e64565b9150611df583611e64565b925082821015611e0857611e07611f25565b5b828203905092915050565b6000611e1e82611e44565b9050919050565b60008115159050919050565b6000819050611e3f826120b0565b919050565b600073ffffffffffffffffffffffffffffffffffffffff82169050919050565b6000819050919050565b6000611e7982611e31565b9050919050565b82818337600083830152505050565b60005b83811015611ead578082015181840152602081019050611e92565b83811115611ebc576000848401525b50505050565b60006002820490506001821680611eda57607f821691505b60208210811415611eee57611eed611fb2565b5b50919050565b611efd82612024565b810181811067ffffffffffffffff82111715611f1c57611f1b611fe1565b5b80604052505050565b7f4e487b7100000000000000000000000000000000000000000000000000000000600052601160045260246000fd5b7f4e487b7100000000000000000000000000000000000000000000000000000000600052601260045260246000fd5b7f4e487b7100000000000000000000000000000000000000000000000000000000600052602160045260246000fd5b7f4e487b7100000000000000000000000000000000000000000000000000000000600052602260045260246000fd5b7f4e487b7100000000000000000000000000000000000000000000000000000000600052604160045260246000fd5b600080fd5b600080fd5b600080fd5b600080fd5b6000601f19601f8301169050919050565b7f4f776e61626c653a206e6577206f776e657220697320746865207a65726f206160008201527f6464726573730000000000000000000000000000000000000000000000000000602082015250565b7f4f776e61626c653a2063616c6c6572206973206e6f7420746865206f776e6572600082015250565b50565b600381106120c1576120c0611f83565b5b50565b6120cd81611e13565b81146120d857600080fd5b50565b6120e481611e64565b81146120ef57600080fd5b5056fea26469706673582212200be051995258c6acb65ba6c7043cb526b293ad4e7cfd6ce63db772ecb27f4f6864736f6c63430008070033",
  "immutableReferences": {},
  "source": "// SPDX-License-Identifier: MIT\n\n// Comissionless Hotel Listing dApp.\n\npragma solidity ^0.8.7;\n\nimport \"@openzeppelin/contracts/access/Ownable.sol\";\n\ncontract krivago is Ownable {\n    \n    // State variables.\n    uint256 hotelId;                        // Hotel ID.\n    uint256 bookingId;                      // Booking ID.\n    uint256 registerFee;                    // Hotel Registration Fee. Owner controlled.\n    uint256 maxRefund;                      // Max Refund in PERCENTAGE for Cancelled Booking. Owner controlled.\n    uint256 minRefund;                      // Min Refund in PERCENTAGE for Cancelled Booking. Owner controlled.    \n    uint256 upperRefund;                    // Time in DAYS to get maximum refund. Owner controlled.\n    uint256 lowerRefund;                    // Time in DAYS to get minimum refund. Owner controlled.\n    \n    enum State {Planned, Completed, Cancelled}\n    \n    struct Hotel {\n        address hotelOwner;\n        string hotelName;\n        string hotelAddress;\n        uint256 totalRooms;\n        uint256 availableRooms;\n        uint256 pricePerNight;\n        bool registered;\n        string imgUrl;\n    }\n    \n    struct Booking {\n        address visitor;\n        uint256 hotelId;\n        uint256 rooms;\n        uint256 bookingTime;\n        uint256 fromTime;\n        uint256 toTime;\n        uint256 bookingCost;\n        State status;\n    }\n    \n    mapping(uint256 => Hotel) hotelIdToHotel;\n    mapping(uint256 => Booking) bookingIdToBooking;\n    \n    \n    // Events.\n    event HotelRegistered(uint256 hotelId, Hotel newHotel);\n    event Booked(uint256 bookingId, Booking newBooking);\n    event Completed(uint256 bookingId, uint256 timestamp);\n    event Cancelled(uint256 bookingId, uint256 refundVisitor, uint256 toHotelOwner, uint256 timestamp);\n    \n    receive() external payable {}\n    \n    constructor(uint256 _registerFee, uint256 _maxRefund, uint256 _minRefund, uint256 _upperRefund, uint256 _lowerRefund) {\n        registerFee = _registerFee;\n        maxRefund = _maxRefund;\n        minRefund = _minRefund;\n        upperRefund = _upperRefund;\n        lowerRefund = _lowerRefund;\n    }\n    \n    \n    // Modifiers.\n    modifier isRegistered(uint256 _hotelId) {\n        require(hotelIdToHotel[_hotelId].registered == true);\n        _;\n    }\n    \n    modifier isAvailable(uint256 _hotelId, uint256 _rooms) {\n        require(hotelIdToHotel[_hotelId].availableRooms >= _rooms);\n        _;\n    }\n    \n    modifier isPlanned(uint256 _bookingId) {\n        require(bookingIdToBooking[_bookingId].status == State.Planned);\n        _;\n    }\n    \n    modifier isVisitor(uint256 _bookingId) {\n        require(bookingIdToBooking[_bookingId].visitor == msg.sender);\n        _;\n    }\n    \n    \n    // Owner functions.\n    function setRegisterFee(uint256 _registerFee) external onlyOwner {\n        registerFee = _registerFee;\n    }\n    \n    function setRefundPercentages(uint256 _maxRefund, uint256 _minRefund) external onlyOwner {\n        maxRefund = _maxRefund;\n        minRefund = _minRefund;\n    }\n    \n    function setRefundDurations(uint256 _upperRefund, uint256 _lowerRefund) external onlyOwner {\n        upperRefund = _upperRefund;\n        lowerRefund = _lowerRefund;\n    }\n    \n    function getContractBalance() external view onlyOwner returns (uint256) {\n        return address(this).balance;\n    }\n    \n    function withdrawFunds(uint256 _amount) external onlyOwner returns (bool) {\n        (bool success, ) = payable(msg.sender).call{value: _amount}(\"\");\n        require(success);\n        return true;\n    } \n    \n    \n    // Hotel functions.\n    function registerHotel(\n        string memory _name,\n        string memory _address,\n        uint256 _totalRooms,\n        uint256 _pricePerNight,\n        string memory _imgUrl)\n        external payable returns (bool) {\n            \n            hotelId += 1;\n            Hotel memory newHotel = Hotel({\n                hotelOwner: msg.sender,\n                hotelName: _name,\n                hotelAddress: _address,\n                totalRooms: _totalRooms,\n                availableRooms: _totalRooms,\n                pricePerNight: _pricePerNight,\n                imgUrl: _imgUrl,\n                registered: true\n            });\n            \n            (bool success, ) = address(this).call{value: registerFee}(\"\");\n            require(success);\n            hotelIdToHotel[hotelId] = newHotel;\n            \n            emit HotelRegistered(hotelId, newHotel);\n            return true;\n    }\n    \n    function getBookingCost(uint256 _hotelId, uint256 _rooms, uint256 _nights) public view returns (uint256) {\n        uint256 bookingCost = hotelIdToHotel[_hotelId].pricePerNight * _nights * _rooms;\n        return bookingCost;\n    }\n    \n    \n    // Visitor functions.\n    function bookHotel(\n        uint256 _hotelId, \n        uint256 _rooms, \n        uint256 _fromTime, \n        uint256 _nights) \n        external payable isRegistered(_hotelId) isAvailable(_hotelId, _rooms) returns (bool) {\n            \n            require(_fromTime - block.timestamp >= 86400);\n            uint256 cost = getBookingCost(_hotelId, _rooms, _nights);\n            bookingId += 1;\n            Booking memory newBooking = Booking({\n                visitor: msg.sender,\n                hotelId: _hotelId,\n                rooms: _rooms,\n                bookingTime: block.timestamp,\n                fromTime: _fromTime,\n                toTime: _fromTime + 86400 * _nights,\n                bookingCost: cost,\n                status: State.Planned\n            });\n            \n            // send non-refundable amount immediately to hotel owner.\n            (bool success1, ) = payable(hotelIdToHotel[_hotelId].hotelOwner).call{value: (cost/100) * (100 - maxRefund)}(\"\");\n            require(success1);\n            \n            // block maximum refund amount with smart contract.\n            (bool success2, ) = address(this).call{value: (cost/100) * maxRefund}(\"\");\n            require(success2);\n            \n            hotelIdToHotel[_hotelId].availableRooms -= _rooms;\n            bookingIdToBooking[bookingId] = newBooking;\n            \n            emit Booked(bookingId, newBooking);\n            return true;\n    }\n    \n    function finish(uint256 _bookingId) external isPlanned(_bookingId) isVisitor(_bookingId) returns (bool) {\n        uint256 hId = bookingIdToBooking[_bookingId].hotelId;\n        uint256 bCost = bookingIdToBooking[_bookingId].bookingCost;\n        \n        // send blocked amount to hotel owner.\n        (bool success, ) = payable(hotelIdToHotel[hId].hotelOwner).call{value: (bCost/100) * maxRefund}(\"\");\n        require(success);\n\n        bookingIdToBooking[_bookingId].status = State.Completed;\n        \n        emit Completed(_bookingId, block.timestamp);\n        return true;\n    }\n    \n    function cancelBooking(uint256 _bookingId) external isPlanned(_bookingId) isVisitor(_bookingId) returns (bool) {\n        uint256 hId = bookingIdToBooking[_bookingId].hotelId;\n        (uint256 refundVisitor, uint256 toHotelOwner) = getRefundAmount(_bookingId);\n        \n        (bool success1, ) = payable(msg.sender).call{value: refundVisitor}(\"\");\n        require(success1);\n        \n        if (toHotelOwner > 0) {\n            (bool success2, ) = payable(hotelIdToHotel[hId].hotelOwner).call{value: toHotelOwner}(\"\");\n            require(success2);\n        }\n\n        hotelIdToHotel[hId].availableRooms += bookingIdToBooking[_bookingId].rooms;\n        bookingIdToBooking[_bookingId].status = State.Cancelled;\n        \n        emit Cancelled(_bookingId, refundVisitor, toHotelOwner, block.timestamp);\n        return true;\n    }\n    \n    // Internal functions.\n    function getRefundAmount(uint256 _bookingId) internal view returns (uint256, uint256) {\n        uint256 refundVisitor = 0;\n        uint256 toHotelOwner = 0;\n        uint256 bCost = bookingIdToBooking[_bookingId].bookingCost;\n        \n        if (bookingIdToBooking[_bookingId].fromTime - block.timestamp >= 86400 * upperRefund) {\n            refundVisitor = (bCost/100) * maxRefund;\n        }\n        else if (bookingIdToBooking[_bookingId].fromTime - block.timestamp >= 86400 * lowerRefund) {\n            refundVisitor = (bCost/100) * minRefund;\n            toHotelOwner = (bCost/100) * (maxRefund - minRefund);\n        }\n        \n        return (refundVisitor, toHotelOwner);\n    }\n    \n}",
  "sourcePath": "/mnt/c/Users/kusha/BlockchainBootcamp/blockchain-bootcamp-final-project/contracts/finalProjectContract.sol",
  "compiler": {
    "name": "solc",
    "version": "0.8.7+commit.e28d00a7.Emscripten.clang"
  },
  "schemaVersion": "3.3.4",
  "updatedAt": "2021-11-23T14:47:00.464Z",
  "devdoc": {
    "kind": "dev",
    "methods": {
      "owner()": {
        "details": "Returns the address of the current owner."
      },
      "renounceOwnership()": {
        "details": "Leaves the contract without owner. It will not be possible to call `onlyOwner` functions anymore. Can only be called by the current owner. NOTE: Renouncing ownership will leave the contract without an owner, thereby removing any functionality that is only available to the owner."
      },
      "transferOwnership(address)": {
        "details": "Transfers ownership of the contract to a new account (`newOwner`). Can only be called by the current owner."
      }
    },
    "version": 1
  },
  "userdoc": {
    "kind": "user",
    "methods": {},
    "version": 1
  }
}